:100000000C9472000C948B000C948B000C948B005D
:100010000C948B000C948B000C948B000C948B0034
:100020000C948B000C948B000C948B000C948B0024
:100030000C948B000C948B000C948B000C948B0014
:100040000C948B000C948B000C948B000C948B0004
:100050000C948B000C948B000C948B000C948B00F4
:100060000C948B000C948B000C948B000C948B00E4
:100070000C948B000C948B000C948B000C948B00D4
:100080000C948B000C948B000C948B000C948B00C4
:100090000C948B000C948B000C948B000C948B00B4
:1000A0000C948B000C948B000C948B000C948B00A4
:1000B0000C948B000C948B000C948B000C948B0094
:1000C0000C948B000C948B000C948B000C948B0084
:1000D0000C948B000C948B000C948B000C948B0074
:1000E0000C948B0011241FBECFEFD1E2DEBFCDBF39
:1000F00000E00CBF12E0A0E0B2E0ECEFF1E000E0C5
:100100000BBF02C007900D92AA33B107D9F70E9426
:10011000D5000C94FC000C94000098E025B115B8B3
:10012000000087FF02C02A9A02C025B115B8880FC7
:10013000299A915099F70895CF93DF931F92CDB7E5
:10014000DEB795B115B8000095B115B869830E9466
:100150008D006981862F0E948D000000289A0F90E3
:10016000DF91CF910895CF93C1E060E08C2F0E9482
:100170009C00CF5FC930C9F7CF910895229A209A89
:10018000219A60E089E00E949C0061E08AE00E9480
:100190009C0067E08BE00E949C0060E08FE00E9482
:1001A0009C0061E08CE00C949C000E94BE0082E008
:1001B000E82E82E0F82E17E00E94B300C0E0D0E005
:1001C000F701EC0FFD1F60818C2F8F5F0E949C0058
:1001D0002196C830D105A1F72FEF83ED90E3215090
:1001E00080409040E1F700C00000115028E0E20E8E
:0C01F000F11C1111E1CFDBCFF894FFCF20
:1001FC00070000387C64646C3C02003C58181818EA
:10020C001800003C626060627C00003C62626262CA
:10021C003C00007C626262627C00007C607C6060FE
:0A022C007C00007C647C70686400B4
:00000001FF
